:020000040800F2
:10000000002800200D3C0008553C0008553C000825
:10001000553C0008553C0008553C00080000000015
:10002000000000000000000000000000553C000837
:10003000553C000800000000553C00080538000849
:10004000553C0008553C0008553C0008553C00084C
:10005000553C0008553C0008553C0008553C00083C
:10006000553C0008553C0008553C0008553C00082C
:10007000553C0008553C0008553C0008553C00081C
:10008000553C0008553C0008553C0008553C00080C
:100090003D380008553C0008553C00084938000828
:1000A000553C0008553C0008553C0008553C0008EC
:1000B000553C0008553C0008553C0008553C0008DC
:1000C000553C0008553C0008553C0008553C0008CC
:1000D000553C0008553C0008553C0008553C0008BC
:1000E000553C0008553C0008553C00080000000045
:1000F0000000000000000000000000000000000000
:0C01000000000000000000005FF808F1A3
:10010C0010B5054C237833B9044B13B10448AFF345
:10011C0000800123237010BD0C01002000000000A2
:10012C00B03C000808B5034B1BB103490348AFF3BF
:10013C00008008BD0000000010010020B03C000849
:10014C0038B50E4B054618784FF47A73B3FBF0F3C1
:10015C000B4A1068B0FBF3F000F09AF8044658B95B
:10016C000F2D09D8024629464FF0FF3000F042F817
:10017C002046044B1D6038BD0120FCE70000002028
:10018C008800002004000020074A08B513680320EB
:10019C0043F01003136000F01BF80120FFF7D0FFB1
:1001AC0003F052FA002008BD00200240034A044B21
:1001BC0011681B780B441360704700BF900100203E
:1001CC0000000020014B1868704700BF9001002010
:1001DC00074A0002D36800F4E06023F4E0631B04D8
:1001EC001B0C43F0BF6343F400330343D3607047ED
:1001FC0000ED00E0174B70B5DC684FF0FF36C4F330
:10020C000224C4F10705042D04F1040328BF0425BE
:10021C00062B98BF002406FA05F388BF033C21EA9D
:10022C000303A34006FA04F422EA0404002843EA78
:10023C000403A8BF00F160404FEA0313B8BF064A9D
:10024C00DBB2B5BF00F00F0000F56140135480F82D
:10025C00003370BD00ED00E014ED00E00123420915
:10026C0000F01F0003FA00F0014B43F82200704726
:10027C0000E100E00122430900F01F0002FA00F047
:10028C00024A203342F82300704700BF00E100E02F
:10029C000138B0F1807F0AD2F021064B064A586033
:1002AC0082F823100020072298601A607047012002
:1002BC00704700BF10E000E000ED00E0044B0428A4
:1002CC001A680CBF42F0040222F004021A60704754
:1002DC0010E000E0704708B5FFF7FCFF08BD000018
:1002EC002DE9F74F00221646624BDFF89CC1DFF870
:1002FC009CE14FF001080C6808FA06F808EA0404BF
:10030C00A0457AD14D68122D00F0AA8000F28380AE
:10031C00022D00F0A28077D8002D00F08980012DED
:10032C0000F099804FF00F09FF2C93BF824606F125
:10033C008045083DD0F800B092BFB500D0F804B0AD
:10034C00AD0009FA05F82BEA080802FA05F588BF92
:10035C0000F1040A48EA0505CAF80050D1F804A0D7
:10036C001AF0805F49D0444F26F00308BD6908F1AC
:10037C00804845F00105BD61BD6908F5803805F080
:10038C000105019506F0030B019D4FEA8B0BD8F884
:10039C00085009FA0BF925EA0909384DA84264D02E
:1003AC0005F58065A84262D005F58065A8420CBFB2
:1003BC000225032505FA0BF545EA0905C8F808508E
:1003CC001D681AF4803F14BF2543A5431D605D686A
:1003DC001AF4003F14BF2543A5435D609D681AF4D1
:1003EC00801F14BF2543A5439D60DD681AF4001FD0
:1003FC0014BF2C4325EA0404DC600136102E7FF474
:10040C0078AF03B0BDE8F08F032D22D0112D89D128
:10041C00CA68043286E71A4FBD4209D012D8DFF8F9
:10042C0070904D4504D009F580394D457FF47AAF75
:10043C008A68C2B1012A0CBFC0F81080C0F81480C1
:10044C0008226FE70F4FBD42F2D06545F0D07545DD
:10045C00ECE7002266E7CA6864E7CA68083261E71D
:10046C00CA680C325EE704225CE70025A2E701258E
:10047C00A0E700BF0004014000100240000801404A
:10048C00000021100000311000003210000022107A
:10049C00000011102DE9F04F4FF0040A00224FF02C
:1004AC0001094FF00F0E2E4C00EB0A0B31FA02F340
:1004BC0001D1BDE8F08F09FA02F30B4049D0FF2BB4
:1004CC0094BF07465F466FEA030385BF02F1804580
:1004DC00083DD0F800C0D0F804C094BF9500AD0022
:1004EC000EFA05F62CEA06060AFA05F52E433E60CE
:1004FC00C56802F003071D40C56022F0030505F135
:10050C00804505F58035AE68BF000EFA07F808EA9D
:10051C00060C144EB0421ED006F58066B0421CD0BC
:10052C0006F58066B0420CBF02260326BE40664527
:10053C000FD1AE6826EA0806AE6025681D4025601E
:10054C0065681D406560A5681D40A560E5682B4089
:10055C00E3600132AAE70026E8E70126E6E700BFE0
:10056C0000040140000801400AB101617047090410
:10057C00FBE738B50446D8B14CF6CC4203681A6098
:10058C0045F255521A6042685A6082689A60FFF7C9
:10059C0019FE05462368D86818B94AF6AA221A60CB
:1005AC0038BDFFF70FFE401B3028F3D90320F7E7C7
:1005BC000120F5E74AF6AA22036800201A6070476A
:1005CC002DE9F041044686B0002860D090F829341B
:1005DC0003F0FF021BB980F8282403F08DF925469F
:1005EC0003236E4655F8100B84F8293401F019FBDF
:1005FC000FCD0FC62B6804F10408336098E80E0089
:10060C00206801F0FFFA0021206801F014FB0021A2
:10061C00234622460126084604F1100582F82810CC
:10062C00918601310F2982F8296082F82B00C2E9EA
:10063C000E00106402F12002F0D10022174683F85C
:10064C0028229A8601320F2A83F8297283F82B729A
:10065C00C3F83872C3F83C72C3F8407203F120033C
:10066C00EDD16E460FCD0FC62B68336098E80E00A7
:10067C00206801F0E2FA012384F82470206884F8E1
:10068C00293401F081FD002006B0BDE8F081012085
:10069C00FAE790F8283410B5012B04460ED001214E
:1006AC0080F8281403F049FA206801F06BFD2068EB
:1006BC0001F0AFFA002084F8280410BD0220FCE7FA
:1006CC0090F8282410B5012A04460BD0012280F89A
:1006DC00282484F82410006801F04EFD002084F8D2
:1006EC00280410BD0220FCE738B5044648B20028A7
:1006FC0001F07F05B5BF04EB451104EB4111283126
:10070C0001F50A71C00F0D704870CB7094F8283445
:10071C000A61012B09D00123206884F8283401F0E8
:10072C00A7FA002084F8280438BD0220FCE74BB25D
:10073C00002B01F07F02B5BF00EB421100EB411121
:10074C00283101F50A71DB0F10B50A704B7090F867
:10075C0028340446012B09D0012380F82834006882
:10076C0001F0DAFB002084F8280410BD0220FCE71D
:10077C0070B5002601F07F014D01441984F8281250
:10078C0005F50A710144C4F83C22C4F84032C4F89F
:10079C00446284F82962006801F00CFD304670BD9B
:1007AC0001F07F0170B54D014419C4E90F230026F7
:1007BC00012384F8281005F128010144666484F8AB
:1007CC002930006801F0F6FC304670BD2DE9F34786
:1007DC000446006801F0DAFC000400F19680206801
:1007EC0001F0D4FC41050FD522682046B2F8443004
:1007FC0023F480631B041B0CA2F8443003F0B5F8FF
:10080C0000212046FFF75CFF206801F0BFFC470485
:10081C0008D52268B2F8443023F480431B041B0C27
:10082C00A2F84430206801F0B1FC860408D5226897
:10083C00B2F8443023F400531B041B0CA2F84430D0
:10084C00206801F0A3FCC5041CD522682046B2F830
:10085C00403023F004031B041B0CA2F84030B2F808
:10086C00403023F008031B041B0CA2F8403003F0AB
:10087C0099F82268B2F8443023F480531B041B0C03
:10088C00A2F84430206801F081FC00051BD52068DB
:10089C00B0F8403043F00803A0F84030B0F84430D2
:1008AC0023F400631B041B0CA0F84430B0F8403058
:1008BC0043F00403A0F8403001F068FCC10402D4FA
:1008CC00204603F05FF8206801F060FC82050BD530
:1008DC0022682046B2F8443023F400731B041B0C2E
:1008EC00A2F8443003F03DF8206801F04FFCC3053A
:1008FC0008D52268B2F8443023F480731B041B0C17
:10090C00A2F8443002B0BDE8F0870023C04FDFF8F6
:10091C000483DFF80493ADF80430ADF8063020689A
:10092C00B0F844309BB2ADF804301B047FF557AFE0
:10093C00BDF8045015F00F0540F0A680BDF804106A
:10094C00038811F0100125D13B400380B0F85030E2
:10095C0094F8282003EBC20300EB4300D0F80434D6
:10096C00E26BC3F3090363641344E363204602F0B0
:10097C00F1FF94F82430002BD1D0226C002ACED178
:10098C0094F82430216843F08003A1F84C3084F8AB
:10099C002420C4E79BB2ADF80630BDF806301A052A
:1009AC001ED5B0F8503094F8282204F22C4103EBF9
:1009BC00C20300EB4303D3F80C34B4F82C22C3F37A
:1009CC000903C4F8443201F0C1FC226820461388A4
:1009DC0023F070031B051B0D138002F0ADFF9EE787
:1009EC00BDF806301B049AD5038823F070031B0551
:1009FC001B0D0380B0F8503094F8282203EBC2038F
:100A0C0000EB4303D3F80C34C3F30903C4F84432AA
:100A1C0063B1B4F82C22D4F83C1201F097FCD4F852
:100A2C003C32D4F844221344C4F83C320021204612
:100A3C0002F088FF2268D4F83852B2F850103E2DDC
:100A4C0001F1060102F5806016D9C5F34F13EE06CD
:100A5C0004BF03F1FF339BB249EA83239BB240F8F6
:100A6C001130138808EA030383F4405343F4004322
:100A7C0043F08003138052E7C5F34F03ED0744BFE7
:100A8C0001339BB29B02E9E730F825309BB2ADF8FD
:100A9C000630BDF8063019043DD530F825304FEA44
:100AAC00451A23F070031B051B0D20F8253004EBB1
:100ABC000A0191F8323200F58062002B6CD1B0F84B
:100ACC00503091F82862063303EBC60352F81360DA
:100ADC00C6F3090636B1B1F82C223346D1F83C12D4
:100AEC0001F034FC04EB0A01D1F84432D1F83C2279
:100AFC003344C1F84432D1F840323244C1F83C227C
:100B0C001BB1D1F8380286427BD2A2449AF8281243
:100B1C00204602F017FFBDF806301A067FF5FFAE2F
:100B2C0020686E0130F82530A1193B4020F82530A3
:100B3C0091F8323000F580620235002B6ED1B0F89E
:100B4C00503091F828C0023303EBCC0352F8133029
:100B5C0004EB4515C3F309036B601BB18A8DC96B9C
:100B6C0001F019FB22682644B2F8503096F8281090
:100B7C00023303EBC10302EB4303D3F80024F36B02
:100B8C00C2F3090272641A44336CF2632046002BE0
:100B9C0079D102F0DFFEC2E691F8283230F82360FA
:100BAC00DB0016F4804FB0F8506033441ED0023393
:100BBC0052F81360C6F3090636B13346B1F82E224B
:100BCC00D1F83C1201F0C2FB04EB0A0393F8281293
:100BDC00226832F8213023F0F0031B051B0D43F47F
:100BEC00004343F0C00322F821307BE7063352F870
:100BFC001360C6F30906002EE6D03346B1F8302256
:100C0C00DEE791F828122046FFF7B2FD83E700BF1C
:100C1C000F8FFFFF8FBFFFFF0080FFFF91F8283081
:100C2C0030F823C0DB001CF0400FB0F850C0634418
:100C3C001DD0023352F8133004EB4515C3F30903EE
:100C4C006B601BB1CA8DC96B01F0A5FAA31993F89F
:100C5C002810226832F8213023F0F0031B051B0DFD
:100C6C0043F4404343F0800322F821307AE7063303
:100C7C0052F8133004EB4515C3F309036B60002BDA
:100C8C00E4D00A8EDFE7FFF78BFD48E6012238B58A
:100C9C004BB2002B01F07F05B5BF00EB451100EB0B
:100CAC004111283101F50A71DB0F8A700D704B7000
:100CBC0090F82834044693420ED080F8282400681B
:100CCC0001F0F0F925B904F22C41206801F061FA29
:100CDC00002084F8280438BD0220FCE738B5002435
:100CEC004BB2002B01F07F02B5BF00EB421100EBC1
:100CFC004111283101F50A71DB0F8C700A704B70B1
:100D0C0090F828340546012B09D0012380F82834AB
:100D1C00006801F0F3F9204685F8284438BD02201C
:100D2C00FCE711F0800F1BBF01F07F0100EB4110BD
:100D3C0000EB4110283008BF00F50A7099B21AB9BF
:100D4C00827281800020704701221B0C8272C1804C
:100D5C000381F7E703682DE9F341DB07054610D45F
:100D6C002B689F075ED42B68190700F195802B68C0
:100D7C005A0700F1BF80EA69002A40F02D8100205B
:100D8C0014E0904C636803F00C03042B07D06368E9
:100D9C0003F00C03082B0CD16368DE0309D5236820
:100DAC009C03DDD56B68002BDAD1012002B0BDE8C5
:100DBC00F0816B68B3F5803F10D1236843F4803326
:100DCC002360FFF7FFF9064623689803C8D4FFF7A2
:100DDC00F9F9801B6428F7D90320E7E79BB923684E
:100DEC0023F480332360236823F480232360FFF7EC
:100DFC00E9F9064623689903B2D5FFF7E3F9801B9E
:100E0C006428F7D9E8E7B3F5A02F236803D143F49E
:100E1C0080232360D1E723F480332360236823F4F9
:100E2C008023CDE7674C636813F00C0F07D0636821
:100E3C0003F00C03082B10D16368DA030DD423687C
:100E4C009B0702D52B69012BAFD123686A6923F06C
:100E5C00F80343EAC203236085E72A695A4B6AB157
:100E6C0001221A60FFF7AEF9064623689F07ECD4FF
:100E7C00FFF7A8F9801B0228F7D9ADE71A60FFF736
:100E8C00A1F90646236898077FF56DAFFFF79AF92D
:100E9C00801B0228F6D99FE7AA694A4C4B4BDAB162
:100EAC0001221A60FFF78EF90646636A9B070DD57F
:100EBC004FF4FA52464B1B68B3FBF2F3019300BF9D
:100ECC00019B5A1E0192002BF9D150E7FFF77AF9DA
:100EDC00801B0228E9D97FE71A60FFF773F90646F1
:100EEC00636A9F077FF543AFFFF76CF9801B0228FD
:100EFC00F6D971E7334CE369D80024D40127E369B0
:100F0C0043F08053E361E36903F080530093009B4B
:100F1C00304E3368D90518D5EB68012B26D1236ADE
:100F2C0043F001032362FFF74DF941F28836804606
:100F3C00236A9B073FD5002F3FF41DAFE36923F0D5
:100F4C008053E36117E70027E2E7336843F48073CB
:100F5C003360FFF737F980463368DA05DCD4FFF7E6
:100F6C0031F9A0EB08006428F6D935E7ABB9236A50
:100F7C0041F2883823F001032362236A23F004032F
:100F8C002362FFF71FF90646236A9807D3D5FFF7AC
:100F9C0019F9801B4045F7D91EE7052B236A03D1AD
:100FAC0043F004032362BAE723F001032362236AAC
:100FBC0023F00403B6E7FFF705F9A0EB0800B042F5
:100FCC00B6D909E7001002400000424280044242B8
:100FDC008800002000700040224C636803F00C0372
:100FEC00082B3FF4E2AE00231F4E022A33602BD1B4
:100FFC00FFF7E8F80746236899011FD42B6AB3F56D
:10100C00803F05D16268A96822F400320A4362600D
:10101C00696A62680B4322F4741213436360012300
:10102C003360FFF7CFF8054623689A013FF5A7AE6A
:10103C00FFF7C8F8401B0228F6D9CDE6FFF7C2F837
:10104C00C01B0228D7D9C7E6FFF7BCF805462368B2
:10105C009B017FF594AEFFF7B5F8401B0228F6D93B
:10106C00BAE600BF001002406000424230B5184B97
:10107C0087B002AC03F11005224618685968083392
:10108C0003C2AB421446F7D140F201231149ADF82B
:10109C0004304B6803F00C02082A17D1C3F38342C7
:1010AC0006A80244DB0312F8102C0CD54B680A4836
:1010BC00C3F34043504306AA134413F8143CB0FB4B
:1010CC00F3F007B030BD05485043FAE70248F8E7A3
:1010DC00C83C00080010024000127A0000093D00D4
:1010EC004C4A2DE9F0411368054603F007038B4287
:1010FC000E4627D32A68910731D4D20737D4454AF4
:10110C00136803F00703B34271D82A68424C12F0FB
:10111C00040F77D1130706D563682A6923F460534B
:10112C0043EAC2036360FFF7A1FF63683B4AC3F362
:10113C000313D35CD8403A4B18600120FFF700F83A
:10114C0000200AE0136823F007030B4313601368B5
:10115C0003F007038B42CDD00120BDE8F0812E496E
:10116C00A8684B6823F0F00303434B60C5E76A683B
:10117C00294C012A23681BD113F4003FECD063687F
:10118C0041F2883823F0030313436360FFF71AF826
:10119C006B680746012B13D1636803F00C03042B17
:1011AC00ADD0FFF70FF8C01B4045F5D90320D4E7AD
:1011BC00022A02D113F0007FE0E713F0020FDDE703
:1011CC00022B0FD1636803F00C03082B97D0FEF7AA
:1011DC00F9FFC01B4045F5D9E8E7FEF7F3FFC01B4C
:1011EC004045E3D8636813F00C0FF6D187E713681A
:1011FC0023F0070333431360136803F00703B34270
:10120C00AAD182E76368E96823F4E0630B43636067
:10121C0080E700BF0020024000100240733D000830
:10122C0088000020014B1868704700BF8800002020
:10123C00044B054A5B68C3F30223D35C034A106872
:10124C00D840704700100240833D00088800002001
:10125C00044B054A5B68C3F3C223D35C034A106892
:10126C00D840704700100240833D000888000020E1
:10127C0003682DE9F341D907054620D5354CE369C0
:10128C00DA0032D40127E36943F08053E361E36968
:10129C0003F080530193019B2F4E3368DB0526D559
:1012AC00236A13F4407336D1236A6A6823F44073BB
:1012BC00134323621FB1E36923F08053E361286871
:1012CC00830706D5234AA968536823F440430B438C
:1012DC00536010F010001BD01E4AE96853680020C0
:1012EC0023F480030B43536012E00027D4E73368E8
:1012FC0043F480733360FEF765FF80463368D8058E
:10130C00CED4FEF75FFFA0EB08006428F6D90320CB
:10131C0002B0BDE8F0816A6802F440729A42C3D010
:10132C0001200E4A236A1060002023F440711060E3
:10133C002162D907B8D5FEF745FF41F28838064639
:10134C00236A9A07B0D4FEF73DFF801B4045F7D9BE
:10135C00DDE700BF00100240007000404004424234
:10136C00036848689A6830B522F070020C68024332
:10137C0022F00702224350289A6021D002D840283C
:10138C0010D030BD60282DD07028FAD1D1E902429E
:10139C0098680969224320F47F4042EA0122024303
:1013AC009A60EEE7186A1A6A096922F001021A6259
:1013BC009A6922F0F00242EA01129A611862E0E79F
:1013CC0088680D69196A1C6A21F00A0124F001046D
:1013DC001C629A69014322F0F00242EA05129A61FA
:1013EC001962CEE7186A8C6820F010000D6918623B
:1013FC0099691A6A21F4704122F0A00241EA053180
:10140C0042EA041299611A62BBE7022341F21112FB
:10141C0010B580F83D3003680446196A114208D1B2
:10142C0040F24442196A114202BF1A6822F00102CA
:10143C001A60204602F084F9002084F83D0084F8FC
:10144C003C0010BD0223026880F83D30136843F065
:10145C0001031360012380F83D3000207047704772
:10146C0090F83C3070B5012B4FF002031CD00122D8
:10147C0080F83D30036880F83C209A6822F47F4263
:10148C0022F077029A600A68402A79D019D8102A7B
:10149C0000F093800AD8002A00F08980012380F89C
:1014AC003D30002380F83C30184670BD202A00F0F7
:1014BC008A80302AF2D19A6822F0700242F0370208
:1014CC0036E0702A36D01BD8502A42D0602AE5D19B
:1014DC001C6A4D6824F01004CE681C6299691A6A63
:1014EC0021F4704122F0A00242EA051241EA0631D1
:1014FC0099611A629A6822F0700242F0670217E052
:10150C00B2F5805F11D0B2F5005FC7D1D1E90152BD
:10151C009C68C9682A4324F47F4442EA012222438E
:10152C009A609A6842F4804202E09A6822F00702BC
:10153C009A60B3E79C68D1E90152C9682A4324F444
:10154C007F4442EA012222439A609A6842F0770271
:10155C00EEE74C68CE68196A1D6A21F00A0125F085
:10156C0001051D629A69214322F0F00242EA06123B
:10157C009A6119629A6822F0700242F05702D7E71A
:10158C004C68CE68196A1D6A21F00A0125F0010524
:10159C001D629A69214322F0F00242EA06129A6116
:1015AC0019629A6822F0700242F04702C0E79A680A
:1015BC0022F0700242F00702BAE79A6822F0700239
:1015CC0042F01702B4E79A6822F0700242F0270248
:1015DC00AEE738B590F83C300446012B4FF00203CF
:1015EC0015D0012580F83D3080F83C50FFF7B8FE4F
:1015FC0000202368DA6822F04002DA60DA6822F40C
:10160C008042DA6084F83D5084F83C0038BD1846BE
:10161C00FCE70000164A10B59042036805D0B0F103
:10162C00804F02D0134CA04210D14C6823F07003B1
:10163C00904243EA040305D0B0F1804F02D00D4A2A
:10164C00904203D1CA6823F4407313434A6923F0D0
:10165C008003134303608B68C3620B688362044B83
:10166C00984204BF0B6903630123436110BD00BFA3
:10167C00002C01400004004010B50446A0B190F8C5
:10168C003D3003F0FF021BB980F83C2002F02CF82F
:10169C000223206884F83D30211DFFF7BBFF012396
:1016AC00002084F83D3010BD0120FCE710B5044645
:1016BC00A0B190F83D3003F0FF021BB980F83C203C
:1016CC00FFF7CDFE0223206884F83D30211DFFF783
:1016DC00A1FF0123002084F83D3010BD0120FCE760
:1016EC0070B5046A104E24F001040462B04284699F
:1016FC00056A15D0B0F1804F12D0A6F59436B042E1
:10170C000ED044F001021B01DBB222F0F0021A43AE
:10171C0001F00A0125F00A0319438261016270BDD0
:10172C0024F003042243EEE7002C0140F8B590F8B6
:10173C003C300446012B0D4617464FF0020019D0E1
:10174C0006C9012384F83D0084F83C302068EB681E
:10175C008FB9FFF7C5FF2368A9689A6922F00C02BC
:10176C009A619A690A439A610123002084F83D30FA
:10177C0084F83C00F8BD042FAE68056A1ED125F034
:10178C001005056285691B0325F44075076A45EA57
:10179C0002229BB222F4704209011A4301F0A0010B
:1017AC0027F0A003194382610162836923F440632B
:1017BC008361836943EA06268661D5E7082F1CD12D
:1017CC0025F480750562C5691B0125F00305076AC0
:1017DC002A43DBB222F0F00209021A4301F4206121
:1017EC0027F420631943C2610162C36923F00C031F
:1017FC00C361C3691E43C661B6E725F48055056213
:10180C00C5691B0325F44075076A45EA022222F4D8
:10181C0070429BB20903134301F4005127F40052A8
:10182C001143C3610162C36923F44063C361C3699B
:10183C0043EA0626DFE710B50124036A8C4023EA4D
:10184C0004030362036A8A401A43026210BD10B596
:10185C00044601220068FFF7EEFF2268002013689F
:10186C0043F00103136010BD90F83C3010B5012B10
:10187C004FF0020318D080F83D3003680C685A68AA
:10188C00496822F070025A605A6822435A609A687A
:10189C0022F080029A609A680A439A60012380F8C9
:1018AC003D30002380F83C30184610BD2DE9F8433C
:1018BC0080460368C1681A69192422F440520A430D
:1018CC001A6182680069D9680243D8F8140021F4BF
:1018DC00B05121F00C0102430A43DA605A69D8F87E
:1018EC00181022F440720A435A613E4A934247D17F
:1018FC00FFF7AEFC04FB00F3D8F804606427B600D5
:10190C00B3FBF6F3B3FBF7F31E01FFF7A1FC604347
:10191C00D8F804309B00B0FBF3F5FFF799FC60435B
:10192C00D8F804309B00B0FBF3F3B3FBF7F307FBE1
:10193C0013531B013233B3FBF7F303F0F005FFF73E
:10194C0087FC6043D8F804209200B0FBF2F9FFF753
:10195C007FFC6043D8F80430D8F800209B00B0FB23
:10196C00F3F3B3FBF7F307FB13931B013233B3FB16
:10197C00F7F303F00F032B4333449360BDE8F88374
:10198C00FFF756FC04FB00F3D8F804606427B6009C
:10199C00B3FBF6F3B3FBF7F31E01FFF749FC60430F
:1019AC00D8F804309B00B0FBF3F5FFF741FC604323
:1019BC00D8F804309B00B0FBF3F3B3FBF7F307FB51
:1019CC0013531B013233B3FBF7F303F0F005FFF7AE
:1019DC002FFC6043D8F804209200B0FBF2F9FFF71B
:1019EC0027FCB6E700380140F8B504460E4617460A
:1019FC001D4621680B6836EA030301D1002014E070
:101A0C006B1CF7D095B923680320DA6822F4D072E6
:101A1C00DA605A6922F001025A61202384F83930C5
:101A2C0084F83A30002384F83830F8BDFEF7CAFB4E
:101A3C00C01B8542DDD2E6E710B5044640B390F8F2
:101A4C00393003F0FF021BB980F8382001F08CFE0E
:101A5C002423226884F83930D368204623F40053B9
:101A6C00D360FFF723FF236800201A6922F4904209
:101A7C001A615A6922F02A025A61DA6842F4005259
:101A8C00DA602023E06384F8393084F83A3010BDF2
:101A9C000120FCE72DE9F0411F4690F8393004464F
:101AAC00202B0D4690464CD1002948D0002A46D018
:101ABC0090F83830012B44D0012380F838300023C3
:101ACC00C363212380F83930FEF77CFB0646A4F86B
:101ADC002480A4F82680E38C9BB263B93B46324643
:101AEC0040212046FFF780FFA0B9202384F838005E
:101AFC0084F839300FE0E38C3246013B9BB2E3842F
:101B0C00A3688021B3F5805F20463B460ED1FFF7DA
:101B1C006BFF10B10320BDE8F0812B882268C3F362
:101B2C0008035360236943B90235D4E7FFF75CFF20
:101B3C000028EFD123682A785A600135CBE70120C1
:101B4C00E9E70220E7E72DE9F0411F4690F83A302B
:101B5C000446202B0D46904652D100294ED0002A27
:101B6C004CD090F83830012B4AD0012380F8383013
:101B7C000023C363222380F83A30FEF723FB06468A
:101B8C00A4F82C80A4F82E80E08D80B228B92023F4
:101B9C0084F8380084F83A300FE0E38D3246013B8C
:101BAC009BB2E385A3682021B3F5805F20463B46BA
:101BBC0016D1FFF719FF10B10320BDE8F08122699F
:101BCC0023683AB95A682B46C2F3080223F8022B51
:101BDC001D46D9E75A682B46D2B223F8012BF7E7FA
:101BEC00FFF702FF0028E7D1226821696B1C5268BD
:101BFC0009B92A70ECE702F07F02FAE70120DCE772
:101C0C000220DAE784B001A880E80E0004B00020BE
:101C1C007047B0F8403043F43F43A0F84030002008
:101C2C007047B0F8403023F474535B045B0CA0F89D
:101C3C004030002070470020704784B010B503ACD2
:101C4C0084E80E00BDE810400123A0F840300023CA
:101C5C00A0F84030A0F84430A0F85030B0F8402044
:101C6C0004B042F43F42A0F84020184670470000F0
:101C7C0070B5CA780B78032A0DD8DFE802F0025A47
:101C8C004A5130F8232022F4EC4222F0700242F444
:101C9C00007220F8232040F60F720C7830F82430B4
:101CAC0044F4004545F0800513402B4320F82430C4
:101CBC008C7A00F580650B78002C40F082808C8843
:101CCC004E7864086400DB00E6B3B0F8506033442F
:101CDC0045F813400C7830F824305D0608D530F800
:101CEC0024301A4042F4004242F0C00220F8242072
:101CFC000A7830F8223023F4E04323F0400383F0D9
:101D0C00200343F4004343F0800320F822300020EA
:101D1C0070BD30F8232022F4EC4222F07002B8E7B8
:101D2C0030F8232022F4EC4222F0700242F4C0621C
:101D3C00AFE730F8232022F4EC4222F0700242F498
:101D4C008062A6E7B0F850201344043345F81340E2
:101D5C00B0F850200C690B7806323E2C02EBC30213
:101D6C0027D9C4F34F16E30604BF06F1FF339EB226
:101D7C00684B43EA86239BB245F812300A7830F858
:101D8C0022305C040BD530F8223023F0F0031B0515
:101D9C001B0D43F4404343F0800320F822300A78B3
:101DAC0030F8223023F4804323F0700383F4405343
:101DBC00A7E7C4F34F03E60744BF01339BB29B0272
:101DCC00D9E730F8234024F4F8742405240D44F4A6
:101DDC00014444F0800420F82340B0F850400B78C4
:101DEC0004EBC304CB885B085B0045F81430B0F8F7
:101DFC0050300C78043303EBC4030C896408640082
:101E0C0045F813404B780C78002B43D130F8243034
:101E1C005B0408D530F824301A4042F4404242F0BA
:101E2C00800220F824200A7830F822305E060BD588
:101E3C0030F8223023F0F0031B051B0D43F4004354
:101E4C0043F0C00320F822300A7830F8223023F017
:101E5C00F0031B051B0D43F4004343F0C00320F8B3
:101E6C00223048F280020C7830F8243023F480437E
:101E7C0023F0700383F44053134320F82430097883
:101E8C0030F8213023F4E04323F040031A4320F8C8
:101E9C0021203CE730F824305D0408D530F824309C
:101EAC001A4042F4404242F0800220F824200A7882
:101EBC0030F822305B060BD530F8223023F0F003DB
:101ECC001B051B0D43F4004343F0C00320F82230E4
:101EDC000A7830F8223023F0F0031B051B0D43F475
:101EEC00404343F0800320F8223048F280020C7803
:101EFC0030F8243023F4E04323F04003134320F85C
:101F0C002430097830F8213023F4804323F0700317
:101F1C00BCE700BF0080FFFF10B58C7A4A780B78C5
:101F2C00BCBBF2B130F8232052060BD530F823207D
:101F3C0022F0F0021205120D42F4004242F0C002EF
:101F4C0020F823200A7830F8223023F0C0031B0538
:101F5C001B0D43F4004343F0800320F82230002093
:101F6C0010BD30F8232054040BD530F8232022F078
:101F7C00F0021205120D42F4404242F0800220F8A9
:101F8C0023200A7830F8223023F0F0039B049B0CBA
:101F9C00DFE7002A44D130F8232052040BD530F867
:101FAC00232022F0F0021205120D42F4404242F0BE
:101FBC00800220F823200A7830F822305C060BD5FA
:101FCC0030F8223023F0F0031B051B0D43F40043C3
:101FDC0043F0C00320F822300A7830F8223023F086
:101FEC00F0031B051B0D43F4004343F0C00320F822
:101FFC00223048F280020C7830F8243023F48043ED
:10200C0023F07003134320F82430097830F8213082
:10201C0023F4E04323F040031A4320F821209EE7E9
:10202C0030F8232052040BD530F8232022F0F00294
:10203C001205120D42F4404242F0800220F8232097
:10204C000A7830F822305B060BD530F8223023F0BA
:10205C00F0031B051B0D43F4004343F0C00320F8B1
:10206C0022300A7830F8223023F0F0031B051B0DC8
:10207C0043F4404343F0800320F8223048F28002BE
:10208C000C7830F8243023F4E04323F0400313435E
:10209C0020F82430097830F8213023F4804323F0E1
:1020AC007003B9E70A787AB9038823F4804323F0E4
:1020BC00400383F4805383F0100343F4004343F054
:1020CC0080030380002070474B7873B130F82230C6
:1020DC0023F4E04323F0400383F0100343F4004364
:1020EC0043F0800320F82230ECE730F8223023F460
:1020FC00804323F0700383F48053EFE74B780A7826
:10210C0003B330F822305B060BD530F8223023F0C5
:10211C00F0031B051B0D43F4004343F0C00320F8F0
:10212C0022300A7830F8223023F4E04323F04003C5
:10213C0083F0300343F4004343F0800320F8223053
:10214C000020704730F822305B040BD530F8223079
:10215C0023F0F0031B051B0D43F4404343F08003B5
:10216C0020F822300A7830F8223023F4804323F010
:10217C00700383F44053DDE711B98023A0F84C3091
:10218C00002070470020704700207047B0F84400D2
:10219C00704700207047013300F580605B1000EB46
:1021AC00420203B9704731F8020B013B22F8040BD1
:1021BC00F7E70000F8B54A780546012A0E468B6908
:1021CC000C69887A59D1A34299BF00221C461B1B6B
:1021DC008B6198BF8A61A3B2496905F58067E0B944
:1021EC00B2882846FFF7D7FFB5F850303278023363
:1021FC0003EBC20347F81340327835F8223023F44E
:10220C00E04323F0400383F0300343F4004343F0F6
:10221C00800325F822300020F8BD327835F82200F2
:10222C00D20010F0400FB5F85000024402F1020247
:10223C0047F81240284614BF3289F288FFF7ABFFEB
:10224C007378327863B935F8223023F0F0031B052C
:10225C001B0D43F4004343F0C00325F82230CBE7B9
:10226C00012BC9D135F8223023F0F0031B051B0DCF
:10227C0043F4404343F08003EFE7A34293BF0021B4
:10228C001B1B8B611C4698BFB1613378F8B9B5F84C
:10229C005020063202EBC3023E2C05F580603FD97C
:1022AC00C4F34F11E40604BF01F1FF3399B2264B7E
:1022BC0043EA81239BB240F81230327835F8223051
:1022CC0023F4804323F0700383F440539DE7B2B9A9
:1022DC00B5F850203E2C02F1020202EBC30205F5C8
:1022EC00806015D9C4F34F11E30604BF01F1FF332D
:1022FC0099B2154B43EA81239BB240F812307378A4
:10230C003178ABB9B5F85020063202EBC102C3E705
:10231C00C4F34F03E70744BF01339BB29B02EBE7C7
:10232C00C4F34F03E10744BF01339BB29B02C1E7E7
:10233C00012BC2D1B5F85030023303EBC10305EBCE
:10234C004303C3F80044B8E70080FFFF10B5002436
:10235C00013300F580605B1000EB42029C4200D11F
:10236C0010BD52F8240021F814000134F6E70000E7
:10237C00292303800048704744000020D0F818320D
:10238C00002083F85000704710B5D0F81842E36C69
:10239C00012B07D1D0F81C326178DB682078984784
:1023AC000023E364002010BD0A230380004870471B
:1023BC007C00002038B50446D0F81852D0F81C32F6
:1023CC006978DB682878984740232A460121204603
:1023DC0001F0A0FB002038BD38B50C78054614F090
:1023EC006004D0F818322DD0202C0CD14A78023A47
:1023FC00092A21D8DFE802F0140920202020201817
:10240C0010058A781A6400241AE0012203F14001B5
:10241C00284600F075FBF6E74A88120A5A64F2E780
:10242C00012203F14401F3E701222846DA648A7998
:10243C00194600F07AFBE6E7284600F03AFB022446
:10244C00204638BD4A780A2A1AD00B2A1ED0062AF2
:10245C00F6D14B881B0A222B07D1CA88D0F81C3224
:10246C00392A28BF39221968D2E7212B05D1CA880D
:10247C000849092A28BF0922CAE721462246C7E78C
:10248C00012203F1480100F03BFBD9E78A789A64FA
:10249C00D6E700BF7000002010B50446812101F082
:1024AC00E3FA0121204601F0DFFAD4F8183253B1D7
:1024BC00D4F81C329B689847D4F8180201F03CFB06
:1024CC000023C4F81832002010BD70B50546202337
:1024DC000322812101F0B8FA20230322012128468E
:1024EC0001F0B2FA542001F023FB0646C5F818029D
:1024FC0070B10024D5F81C3280F850405B689847C6
:10250C00402332460121284601F004FB204670BDD1
:10251C000120FCE710B5134690F8FC21032A0BD1DF
:10252C00D0F8184294F8502032B9012284F8502087
:10253C000A46812101F0E0FA002010BD19B1C0F863
:10254C001C12002070470220704708B580B1D0F8EB
:10255C00143213B10023C0F8143209B1C0F81012B0
:10256C000123027080F8FC3101F020FA002008BD34
:10257C000220FCE719B1C0F81412002070470220A9
:10258C00704708B501F052FA002008BD08B5D0F824
:10259C0014320BB9022008BD1B6898470028FAD0EA
:1025AC00F8E708B5D0F814325B689847002008BDEE
:1025BC0038B500F502750446284600F066FA01238A
:1025CC0094F80812C4F8F431B4F80E32C4F8F831A7
:1025DC0001F01F03012B0ED007D3022B10D001F0FA
:1025EC008001204601F04EFA03E02946204600F017
:1025FC00D5F8002038BD2946204600F0CFF9F8E781
:10260C002946204600F0E2F9F3E738B504461546B2
:10261C0011BBD0F8F431032B0FD1D0F80C31D0F81A
:10262C00102193420BD99B1A9A4228BF1A46C0F824
:10263C000C3192B2294600F087FA002038BDD0F850
:10264C0014321B6923B190F8FC21032A00D198475E
:10265C00204600F081FAF0E7D0F814329B69002B89
:10266C00EBD090F8FC21032AE7D19847E5E770B549
:10267C00134604460E4600293DD1D0F8F421022A17
:10268C000FD1D0E90752954214D9AA1AC261194642
:10269C0092B200F042FA33461A461946204601F02F
:1026AC0039FA94F80032012B02D1002384F800325D
:1026BC00002070BD8369B3FBF2F502FB153565B9DB
:1026CC009A420AD8D0F8F821934206D22A4600F052
:1026DC0024FAC4F8F8512B46DEE7D4F81432DB6840
:1026EC002BB194F8FC21032A01D1204698472046AF
:1026FC0000F03DFAD5E7D0F814325B69002BD7D047
:10270C0090F8FC21032AD3D19847D1E7002238B5A1
:10271C00044640251146402301F096F92B46C4F897
:10272C00105100228021204601F08EF9012384F8FB
:10273C00FC31D4F8183225622BB1D4F8143221793B
:10274C005B6820469847002038BD01740020704714
:10275C0090F8FC3180F8FD31042380F8FC31002026
:10276C00704790F8FD3180F8FC310020704708B5B7
:10277C0090F8FC21032A04D1D0F81432DB6903B1A0
:10278C009847002008BD10B50446802101F07AF965
:10279C002046BDE81040002101F074B937B54B78E4
:1027AC0004460D46092B7DD8DFE813F0D000EC0071
:1027BC007C00E0007C0074000A007C00C0009400E7
:1027CC0049880B0A013B062B6CD8DFE803F0041C8C
:1027DC00296B6B505900D0F810321B680DF10601B3
:1027EC00207C9847BDF80620002A6ED0EB88002B81
:1027FC006BD09A4228BF1A460146ADF806202046F7
:10280C0000F07EF961E0027CD0F8143232B99B6A98
:10281C000DF10600984702234370E3E7DB6AF7E704
:10282C00C9B205291CD8DFE801F003070B0F1317F9
:10283C00D0F810325B68D1E7D0F810329B68CDE746
:10284C00D0F81032DB68C9E7D0F810321B69C5E745
:10285C00D0F810325B69C1E7D0F810329B69BDE744
:10286C00D0F814320DF106029B6B9847BAE7037C43
:10287C00C3B9D0F814320DF106005B6B9847B1E781
:10288C00037C7BB9D0F814320DF106001B6B984712
:10289C000723C1E78B882BB9CB881BB990F8FC3187
:1028AC00032B03D12046FFF76EFF0EE08D7805F069
:1028BC007F0580F8FE51294601F010F9204600F002
:1028CC004BF92DB1022384F8FC31002003B030BD4C
:1028DC000123F8E78978304D01292970E2D890F866
:1028EC00FC31022B0CD0032BDCD1B1B9022341609B
:1028FC0080F8FC31FFF755FE204600F02DF9E4E797
:10290C000029F9D001210323416080F8FC312046D5
:10291C00FFF73CFE0228EFD1C4E741680129EBD058
:10292C00C9B2FFF73EFE29786160F0E7CA88012A38
:10293C00B8D190F8FC31022B03D0032BB2D1011D7E
:10294C005DE70146002341F8083F58E790F8FC3159
:10295C00023B012BA6D80023C360D0F804320BB184
:10296C000223C360022204F10C0148E74B88012BBF
:10297C00ABD1C4F80432D4F8143229469B682046F3
:10298C009847B9E790F8FC31023B012B8AD84B8869
:10299C00012B9AD10023ECE72801002038B590F8E0
:1029AC00FC310446032B0D460DD10B79012B0AD8B3
:1029BC00D0F814329B689847EB8813B9204600F086
:1029CC00CBF8002038BDFFF7DEFEFAE738B50B7800
:1029DC00044603F06003202B0D4605D1D0F81432C9
:1029EC009B689847002038BD6A788B88012AD9B239
:1029FC001CD029D3032AF5D190F8FC31022B3DD001
:102A0C00032B03D02046FFF7BEFEEBE76B881BB908
:102A1C004A0601D001F036F8D4F8143229469B68E6
:102A2C0020469847204600F097F8DBE790F8FC31F9
:102A3C00022B23D0032BE5D16B88002BD2D14B0674
:102A4C00F0D001F02DF8E7E790F8FC21022A15D020
:102A5C00032AD7D101F07F051B0600EB05154CBFEF
:102A6C00143505F5827501F029F860B101232B604E
:102A7C0002222946204600F043F8B3E74A06B1D0BB
:102A8C0001F000F8AEE72860F2E70B7803704B78A2
:102A9C004370CA788B7803EB022343804A790B7915
:102AAC0003EB02238380CA798B7903EB0223C38067
:102ABC00704710B50446802100F0E4FF2046BDE8C5
:102ACC001040002100F0DEBF30B588B105462B1A4E
:102ADC0015F8014BDBB2002CF9D101335B001380EC
:102AEC000B7003234B700223013810F8015F05B9FA
:102AFC0030BD5A1CCD54D2B20233DBB28C54F4E745
:102B0C001346022210B5C0F8F421C0E906330A4678
:102B1C00002100F0F1FF002010BD08B513460A4655
:102B2C00002100F0E9FF002008BD1346032210B578
:102B3C00C0F8F421C0F808310A46C0F80C31002165
:102B4C0000F0E8FF002010BD08B513460A4600212E
:102B5C0000F0E0FF002008BD08B50423C0F8F431F4
:102B6C0000231A46194600F0C7FF002008BD08B51F
:102B7C000523C0F8F43100231A46194600F0CAFFA9
:102B8C00002008BD064B00211A69064842F40032A9
:102B9C001A611A6922F400321A61402201F07AB8E3
:102BAC00001002402002002008B5FFF7EBFF0C4894
:102BBC000C4B0D4A4FF48051C0E900234FF40053E5
:102BCC004FF4806CC0E902130423C0E904C3002352
:102BDC00C0E90633FEF730FF00B1FEE708BD00BFC9
:102BEC0020020020A08601000044004008B5FFF739
:102BFC00C9FF4FF4E1330848084AC0E90023002319
:102C0C000422C0E902330361C0E90523C361FEF766
:102C1C0013FF00B1FEE708BD200200200044004075
:102C2C001FB500242022094B69460948CDE9002331
:102C3C000294FDF755FB224621461720FDF7DAFAE0
:102C4C001720FDF70BFB04B010BD00BF00003110C6
:102C5C00000C014030B54FF480330922022595B0A9
:102C6C00CDE90A2301240022CDE911534FF4E013DE
:102C7C000AA80C920E9410941393FEF76BF800B103
:102C8C00FEE70F23CDE905354FF480630790CDE9BE
:102C9C000830294605A8FEF723FA00B1FEE71023F9
:102CAC00049001A80193FEF7E3FA054600B1FEE794
:102CBC00FEF7B8FA4FF47A73B0FBF3F0FDF7E8FACD
:102CCC000420FDF7FBFA2A4621464FF0FF30FDF7B2
:102CDC0091FA15B030BD00002DE9F0430126A04C4F
:102CEC00A04B95B0656A1E60FDF74EFAFFF7B2FF78
:102CFC00A369002743F01003A361A3694FF00208F6
:102D0C0003F010030193019BA369002243F02003FD
:102D1C00A361A3694FF4005103F020030293029BBB
:102D2C00A369914843F00403A361A36905F000650E
:102D3C0003F004030393039BA36943F00803A3610B
:102D4C00A3694FF4005403F008030493049BFDF7AC
:102D5C000BFC002210218548FDF706FC0FA98248C8
:102D6C00CDE90F46CDE91178FDF7BAFA1023CDE97C
:102D7C000F3603230FA97D4811971293FDF7B0FA74
:102D8C002DBB4FF480570FA97848CDE90F76CDE9CC
:102D9C001158FDF7A5FA39462A467448FDF7E4FBAD
:102DAC00324621467048FDF7DFFBFDF70BFA2C4647
:102DBC0007F1804700F57A7607F58037FDF702FAC0
:102DCC00864218D84FF480516848FDF763FB4FF4E6
:102DDC00E13400F075FD6648664B0822C0E900340A
:102DEC000023C0E902330361C0E90523C361FEF788
:102DFC0023FE48B1FEE704F001024FF400513846BF
:102E0C00FDF7B2FB0134D9E704265B4B5B4AC3E9FF
:102E1C0002001861C3E90560D8611846C3E90024B3
:102E2C00FEF70AFE00B1FEE7022355485549C0E9FA
:102E3C00001340F6FF738360FDF79BFB00B1FEE7C8
:102E4C004723514C514AA060C4E900234FF6FF734D
:102E5C00A061C4E903302046FEF70EFC00B1FEE78A
:102E6C004FF4805314A941F8343D2046FEF7F8FA8C
:102E7C0000B1FEE72046FEF719FC00B1FEE7602327
:102E8C001390CDE910300FA920460F96FEF7A1FB49
:102E9C0000B1FEE7CDE9050005A92046FEF7E4FCEC
:102EAC0000B1FEE701230B90CDE90C300E903246B9
:102EBC000BA92046FEF73AFC00B1FEE72046FEF7D0
:102ECC00A4FAFFF7ADFE324800F0D8F815B9314836
:102EDC0000F0D4F8284C2C4FDFF8909000264FF0DF
:102EEC0001082D4D2E60FFF781FE204600F000FA00
:102EFC00FFF77CFE204600F073FAFFF755FE2046E4
:102F0C00C5F8008000F04EFBFFF74EFE20462E6009
:102F1C0000F048FBFFF76AFE204600F0CBF81720C4
:102F2C00FDF7A8F93846FEF7A7FB324610214846B4
:102F3C00FDF71AFB384600F0ADFA3846FEF765FA95
:102F4C00FFF76EFEFFF752FE2046C5F8008000F03A
:102F5C0053F9FFF74BFE20462E6000F04DF9BDE70C
:102F6C0000100240E0044242001001400008014001
:102F7C00E001002000380140200200200044004005
:102F8C009401002000300040A0010020000400400B
:102F9C00D83C0008DE3C000864020020FEE72DE966
:102FAC00F341154607468846FDF70CF9461943468A
:102FBC00012201A93846FEF7C6FD0328044604D0B9
:102FCC001DB1FDF7FFF8B042F1D3E31E5842584152
:102FDC0002B0BDE8F081000070B52148214D0022FF
:102FEC0029464FF47A76044635F81230B3F57A7FD9
:102FFC0033D3B3F5FA6F28BF4FF4FA63A3F57A73A2
:10300C009BB2C3EBC33393FBF6F320F812300132BF
:10301C00062AE9D140F2D5628B89C88993428CBFCC
:10302C0001230023904240F2D562088A88BF43F006
:10303C000203904240F2D562498A88BF43F00403F0
:10304C00914288BF43F008030548237300F07CFDD0
:10305C00FDF7B8F8044B186070BD0023D1E700BF32
:10306C0029010020680200206002002014220021A7
:10307C00014800F00FBE00BF6802002070B5034687
:10308C0004461D1B13F8012B002AFAD1054EADB2D4
:10309C0001232A4621463046FEF7FCFC0228F7D0D5
:1030AC0070BD00BFE00100200148FDF783BA00BFEE
:1030BC00940100202DE9FF4700240646A146FFF7A6
:1030CC00D5FF2546334FDFF8D880FFF7EDFF9DB9CC
:1030DC00642202213046FFF762FF30B93846FFF711
:1030EC00CDFF09F10109002500E00125B9F1030F1D
:1030FC00EBD104B0BDE8F08764231022694630465A
:10310C00FEF721FD0028E9D19DF80110012905D019
:10311C00122903D001F0EF03A22BDFD102224FF4CE
:10312C007A7C40F2565E1C481DF802A00DEB02039F
:10313C004FEA0A2901295B780FFA89F90BBF09F4C8
:10314C00407909F4E069CAF3830ACAF3C30A0CBFD5
:10315C0043EA090343EA090350F82A9008BF5B00CD
:10316C00B9F1090FDEBF03F201430CFB03F393FB30
:10317C00FEF302F10202D8BF28F81930102AD3D17D
:10318C00FFF72AFF14B90548FFF778FF01244FF029
:10319C0000099AE7ED3C0008F03C0008E93C000807
:1031AC006802002073B505460C468E18B44205D152
:1031BC000020B0FA80F0400902B070BD64230122F7
:1031CC000DF107012846FEF7BEFC0028F1D19DF851
:1031DC0007307D2B0CD1642301220DF10701284609
:1031EC00FEF7B1FC0028E4D19DF8073083F02003F2
:1031FC0023700134DAE700002DE9F04F0026074672
:10320C0034463546DFF8DC80DFF8DC90DFF8DCA0F4
:10321C00C1B0FFF749FFB5B9642202213846FFF768
:10322C00BEFE50B9D8F80000013400280CBF484647
:10323C005046FFF723FF002500E00125032CE8DDB5
:10324C0041B0BDE8F08F64232A4669463846FEF744
:10325C007AFC0028E6D19DF800307E2BE2D12A467C
:10326C000DF101013846FFF79DFF0028DAD09DF8DB
:10327C0001B00DF102010BF102023846FFF792FF8B
:10328C000028CFD00BF1030B1DF80B307E2BC9D1CE
:10329C009DF8023003BB2A461DF8021001320B4484
:1032AC0093459BB2F8DC03EB1323DBB2FF2BB9D1B4
:1032BC000DF1030000F04CF9FFF78EFE4EB9D8F873
:1032CC000000064A064B00280CBF10461846FFF7B4
:1032DC00D5FE012600249CE70134AFE7363D0008FB
:1032EC00303D000864020020403D00083B3D0008D2
:1032FC002DE9F04F0026074635463446DFF8D880D6
:10330C00DFF8D890C1B0FFF7CFFE8CB96422022150
:10331C003846FFF744FE28B94046FFF7AFFE0135AB
:10332C00002400E00124032DEDD141B0BDE8F08F65
:10333C006423224669463846FEF705FC0028EBD18B
:10334C009DF800A0BAF1030FE6DD1AF0010FE3D1EE
:10335C001FFA8AFB0BF1FF32642392B2694638469E
:10336C00FEF7F1FB0028D7D19DF80030402BD3D1CC
:10337C0021468BF47F4383F0FF03403B9BB2AAF1C1
:10338C00030A0DEB010C8A451DF801209CF801C0C5
:10339C000CDC42EA0C229342BED1FFF71DFE16B99B
:1033AC000C48FFF76BFE01260025ACE70928D8BFB7
:1033BC0042EA0C2BA3EB0203DCBF01EB090ECBF3AF
:1033CC000B0BA3EB0C03D8BF2EF801BC9BB2023144
:1033DC000130D6E7443D0008493D00086802002052
:1033EC002DE9F043002507462C462E46DFF89C803D
:1033FC00DFF89C9089B0FFF757FE8EB9642202214A
:10340C003846FFF7CCFD28B94046FFF737FE0134AC
:10341C00002600E00126032CEDD109B0BDE8F083B5
:10342C0064231F2269463846FEF78DFB0028EBD13A
:10343C009DF80030552BE7D1334684460DEB030243
:10344C001DF803105278092841EA0222DCBFC2F3AE
:10345C000B0E03EB090103F10203D8BF21F801ECB9
:10346C0062441D2B1FFA82FC00F10100E6D1BDF86D
:10347C001D306345C8D1FFF7AFFD15B90248FFF702
:10348C00FDFD01250024B6E74D3D0008523D000826
:10349C00680200202DE9F0478046FCF793FE0024DB
:1034AC0000F164094046FDF7CDFF04214046FEF7CC
:1034BC00CEF9D8F8003025465C62FFF7D7FD2746D9
:1034CC002646DFF888A0FCF77DFE484535D8FFF787
:1034DC00EBFDD8F800305A6A40F6B8339A420ED950
:1034EC00DEB1E5B1FFF778FD14B95046FFF7C6FD24
:1034FC000124FCF767FE2746002600F16409D8F882
:10350C0000301A695207DED59B6B56B91FB10025E6
:10351C0001262F46D7E70026D5E70127EFE73746E8
:10352C00EDE7A3F51672B2F5E16FF4D8092DCADCFC
:10353C00044A22F815300135C5E70348BDE8F047C9
:10354C00FFF79CBD680200205B3D0008563D00085B
:10355C0000231A461946F0B5DFF844C00D4D0E4F46
:10356C000E4E0A2A0FDDC1F30A040CFB047494FB03
:10357C00F6F425F8134001330A2BA2F10B024FEAA3
:10358C00E121EED1F0BD10F8014B944021430832FB
:10359C00E7E700BF68020020A02B5E3540420F0019
:1035AC004F4F09002DE9F047002507462C462E46C3
:1035BC00DFF88880DFF88890DFF888A088B0FFF704
:1035CC0073FDB6B9642202213846FFF7E8FC50B906
:1035DC00D8F80000013400280CBF48465046FFF7CD
:1035EC004DFD002600E00126032CE8D108B0BDE813
:1035FC00F0876423192201A93846FEF7A4FA0028A3
:10360C00E6D19DF804300F2BE2D10DF10500FFF748
:10361C009FFFFFF7E1FC4DB9D8F80000054A064BB7
:10362C0000280CBF10461846FFF728FD0125002482
:10363C00C5E700BF653D00085F3D0008640200203F
:10364C006F3D00086A3D0008254B07B59A690320B9
:10365C0042F001029A619A6902F001020092009A0A
:10366C00DA6942F08052DA61DB6903F0805301932E
:10367C00019BFCF7ADFD00226FF00B001146FCF72F
:10368C00B9FD00226FF00A001146FCF7B3FD0022D1
:10369C006FF009001146FCF7ADFD00226FF004003D
:1036AC001146FCF7A7FD00226FF003001146FCF752
:1036BC00A1FD00226FF001001146FCF79BFD0022DA
:1036CC0001214FF0FF30FCF795FD064A536823F0BB
:1036DC00E06343F00073536003B05DF804FB00BF7C
:1036EC0000100240000001407FB50268114B9A4265
:1036FC001CD103F50333DA6902A942F00202DA6144
:10370C00DB69202203F002030193019B00230A488A
:10371C00CDE902230493FCF7E3FD084A536823F434
:10372C00406343F0E06343F40063536007B05DF81B
:10373C0004FB00BF00040040000C014000000140ED
:10374C000268064B9A4208D1054A2021D3690548E4
:10375C0023F00203D361FCF79DBE704700040040C8
:10376C0000100240000C01407FB503681E4A9342D2
:10377C0021D11E4B4FF400719A691D4842F48042CE
:10378C009A619B6903F480430093009B0223CDE96B
:10379C000213032302A90593FCF7A2FD4FF48063E7
:1037AC000293002302A91248CDE90333FCF798FDDC
:1037BC0007B05DF804FB0F4A9342F9D10B4B02A9F9
:1037CC00DA690B4842F40032DA61DB69042203F453
:1037DC0000330193019B0223CDE9022303230593BC
:1037EC00FCF77EFD0823DBE70038014000100240A7
:1037FC00000801400044004008B5FCF7D7FCFCF77A
:10380C006AFDFCF7DFFC084B4FF400511B6803F515
:10381C007A73834234BFC0F340220022BDE80840D3
:10382C000248FCF7A1BE00BF60020020001001405E
:10383C000148FCF7CBBF00BFA004002020220A4B9C
:10384C005A6103F608031B685340084AC3F340133C
:10385C0012689342064B1A6814BF42F4801242F06D
:10386C0010021A60704700BF00040140640200207F
:10387C00100801400F4B1A6842F001021A60596897
:10388C000D4A0A405A601A6822F0847222F480327F
:10389C001A601A6822F480221A605A6822F4FE0216
:1038AC005A604FF41F029A604FF00062034B9A600B
:1038BC00704700BF001002400000FFF800ED00E070
:1038CC0010B5094C002209492046FEF73EFE084976
:1038DC002046FEF74FFE20460649FEF72FFE2046F7
:1038EC00BDE81040FEF74DBE7C020020D800002041
:1038FC0008000020C800002007B50E4B02689A4251
:10390C0015D103F5DA33DA69012142F40002DA61E8
:10391C00DB69002203F4000301931420019BFCF7E4
:10392C0069FC142003B05DF804EBFCF797BC03B002
:10393C005DF804FB005C004000F22C41D0F85C0404
:10394C00FEF736BE00EB4113D3F83C22D0F85C04F2
:10395C00FEF75BBE00EB4113DA6BD0F85C04FEF7AC
:10396C0086BED0F85C04FEF702BF10B504460121F8
:10397C00D0F85C04FEF7E9FED4F85C04BDE8104016
:10398C00FEF7C4BE10B50446D0F85C04FEF7E0FEAA
:10399C00A36923B1024A136943F00603136110BDF6
:1039AC0000ED00E0D0F85C04FEF7DBBE082310B598
:1039BC001B4A04461B480221C0E900230323C0E92B
:1039CC0002130023C0F85C44C4F82002C0E906339B
:1039DC000362FCF7F5FD20B14FF497711248FFF725
:1039EC00DDFA002218231146D4F82002FDF799F9CC
:1039FC00582300228021D4F82002FDF792F9982355
:103A0C0000228121D4F82002FDF78BF9D823002263
:103A1C000121D4F82002FDF784F9002010BD00BF6D
:103A2C00005C0040A00400208F3D000808B5D0F8D1
:103A3C002002FCF72EFE032896BF024B0220185CD6
:103A4C0008BD00BF8B3D000810B51C46D0F8200205
:103A5C0013462246FCF748FE032896BF014B022072
:103A6C00185C10BD8B3D000808B5D0F82002FCF79F
:103A7C005EFE032896BF024B0220185C08BD00BFF7
:103A8C008B3D000808B5D0F82002FDF7FFF803289D
:103A9C0096BF024B0220185C08BD00BF8B3D00088E
:103AAC0008B5D0F82002FDF719F9032896BF024B90
:103ABC000220185C08BD00BF8B3D00080A06D0F838
:103ACC00203245BF01F07F0103EB411303EB41139F
:103ADC0093F82A0058BF93F82A02704708B5D0F81B
:103AEC002002FCF7EDFD032896BF024B0220185C68
:103AFC0008BD00BF8B3D000808B5D0F82002FCF7CC
:103B0C004FFE032896BF024B0220185C08BD00BF75
:103B1C008B3D000808B5D0F82002FCF729FE0328DD
:103B2C0096BF024B0220185C08BD00BF8B3D0008FD
:103B3C0000487047380100207047704700207047DC
:103B4C000020704700207047014608B50D2202483E
:103B5C00FEF7E0FC40B208BD7C02002012230148B5
:103B6C000B807047F4000020042301480B80704741
:103B7C000801002010B5044C0A4604482146FEF703
:103B8C00A3FF204610BD00BF00090020B83D00086F
:103B9C0010B5044C0A4604482146FEF795FF204612
:103BAC0010BD00BF00090020CB3D000810B5044C2F
:103BBC000A4604482146FEF787FF204610BD00BF89
:103BCC0000090020E13D000810B5044C0A460448E9
:103BDC002146FEF779FF204610BD00BF00090020EA
:103BEC009F3D000810B5044C0A4604482146FEF7D8
:103BFC006BFF204610BD00BF00090020AA3D000845
:103C0C00002103E00B4B5B58435004310A480B4B2B
:103C1C0042189A42F6D30A4A02E0002342F8043BC7
:103C2C00084B9A42F9D3FFF725FE00F00FF8FFF787
:103C3C0053F87047F83D0008000000200C010020EC
:103C4C000C010020000B0020FEE7000070B50025E1
:103C5C000C4E0D4CA41BA410A54209D100F022F867
:103C6C0000250A4E0A4CA41BA410A54205D170BD18
:103C7C0056F8253098470135EEE756F82530984729
:103C8C000135F2E7F03D0008F03D0008F03D00087A
:103C9C00F43D000803460244934200D1704703F8F8
:103CAC00011BF9E7F8B500BFF8BC08BC9E4670478D
:0C3CBC00F8B500BFF8BC08BC9E4670477D
:103CC80002030405060708090A0B0C0D0E0F101055
:103CD800496E69740A005553422052657365740A27
:103CE80000646C0A00640A00020000000000000082
:103CF80001000000030000000400000005000000AF
:103D0800060000000700000008000000090000008D
:103D1800FF000000FF000000FF000000FF0000009F
:103D2800FF000000FF0000006670696C0A00667002
:103D38006C0A006670690A0066700A0069626C0A9B
:103D48000069620A0069366C0A0069360A007070F8
:103D58006C0A0070700A007362696C0A0073626C06
:103D68000A007362690A0073620A0000000000001A
:103D78000000000102030406070809000000000112
:103D8800020304000201025372635C757362645F8C
:103D9800636F6E662E630048494420436F6E666900
:103DA800670048494420496E74657266616365001E
:103DB80053544D6963726F656C656374726F6E6995
:103DC800637300556E6976657273616C2052432087
:103DD8004A6F79737469636B00303030303030303B
:083DE8003030304441000000BE
:043DF0003101000895
:043DF4000D010008B5
:103DF8000100000010000000D7240008A5240008D6
:103E0800E523000800000000952300088923000826
:103E1800C1230008000000000000000000000000AE
:103E28007D2300087D2300087D230008B5230008B2
:103E38000000000009022900010100C03209040045
:103E480000020300000009211101000122390007C6
:103E58000581032000010705010320002000000060
:103E68000921110100012239000000000A060002A0
:103E7800000000400100000000A24A0405010904F6
:103E8800A101A100050109300931093209330934BA
:103E98000935150026FF7F75109506810205091959
:103EA8000129041500250175019504810275049501
:103EB800018101C0C00000008C000020493B0008BF
:103EC800513B00084D3B0008693B0008753B000862
:103ED800813B00089D3B0008B93B0008D53B000822
:103EE800F13B000812010002000000408304105753
:0C3EF800000201020301000004030904A1
:0400000508003C0DA6
:00000001FF
